{
  "contractName": "JSETokenSale",
  "abi": [
    {
      "constant": true,
      "inputs": [],
      "name": "operatorAddress",
      "outputs": [
        {
          "name": "",
          "type": "address"
        }
      ],
      "payable": false,
      "stateMutability": "view",
      "type": "function"
    },
    {
      "constant": true,
      "inputs": [],
      "name": "PURCHASE_DIVIDER",
      "outputs": [
        {
          "name": "",
          "type": "uint256"
        }
      ],
      "payable": false,
      "stateMutability": "view",
      "type": "function"
    },
    {
      "constant": true,
      "inputs": [],
      "name": "CONTRIBUTION_MAX",
      "outputs": [
        {
          "name": "",
          "type": "uint256"
        }
      ],
      "payable": false,
      "stateMutability": "view",
      "type": "function"
    },
    {
      "constant": true,
      "inputs": [],
      "name": "DURATION",
      "outputs": [
        {
          "name": "",
          "type": "uint256"
        }
      ],
      "payable": false,
      "stateMutability": "view",
      "type": "function"
    },
    {
      "constant": true,
      "inputs": [],
      "name": "totalPresaleBonus",
      "outputs": [
        {
          "name": "",
          "type": "uint256"
        }
      ],
      "payable": false,
      "stateMutability": "view",
      "type": "function"
    },
    {
      "constant": false,
      "inputs": [
        {
          "name": "_adminAddress",
          "type": "address"
        }
      ],
      "name": "setAdminAddress",
      "outputs": [
        {
          "name": "",
          "type": "bool"
        }
      ],
      "payable": false,
      "stateMutability": "nonpayable",
      "type": "function"
    },
    {
      "constant": false,
      "inputs": [
        {
          "name": "_operatorAddress",
          "type": "address"
        }
      ],
      "name": "setOperatorAddress",
      "outputs": [
        {
          "name": "",
          "type": "bool"
        }
      ],
      "payable": false,
      "stateMutability": "nonpayable",
      "type": "function"
    },
    {
      "constant": true,
      "inputs": [],
      "name": "TOKENS_SALE",
      "outputs": [
        {
          "name": "",
          "type": "uint256"
        }
      ],
      "payable": false,
      "stateMutability": "view",
      "type": "function"
    },
    {
      "constant": false,
      "inputs": [],
      "name": "unpause",
      "outputs": [],
      "payable": false,
      "stateMutability": "nonpayable",
      "type": "function"
    },
    {
      "constant": true,
      "inputs": [],
      "name": "wallet",
      "outputs": [
        {
          "name": "",
          "type": "address"
        }
      ],
      "payable": false,
      "stateMutability": "view",
      "type": "function"
    },
    {
      "constant": true,
      "inputs": [],
      "name": "tokenContract",
      "outputs": [
        {
          "name": "",
          "type": "address"
        }
      ],
      "payable": false,
      "stateMutability": "view",
      "type": "function"
    },
    {
      "constant": true,
      "inputs": [],
      "name": "CONTRIBUTION_MAX_NO_WHITELIST",
      "outputs": [
        {
          "name": "",
          "type": "uint256"
        }
      ],
      "payable": false,
      "stateMutability": "view",
      "type": "function"
    },
    {
      "constant": true,
      "inputs": [],
      "name": "TOKEN_DECIMALS",
      "outputs": [
        {
          "name": "",
          "type": "uint8"
        }
      ],
      "payable": false,
      "stateMutability": "view",
      "type": "function"
    },
    {
      "constant": true,
      "inputs": [],
      "name": "paused",
      "outputs": [
        {
          "name": "",
          "type": "bool"
        }
      ],
      "payable": false,
      "stateMutability": "view",
      "type": "function"
    },
    {
      "constant": true,
      "inputs": [],
      "name": "totalTokensSold",
      "outputs": [
        {
          "name": "",
          "type": "uint256"
        }
      ],
      "payable": false,
      "stateMutability": "view",
      "type": "function"
    },
    {
      "constant": false,
      "inputs": [],
      "name": "pause",
      "outputs": [],
      "payable": false,
      "stateMutability": "nonpayable",
      "type": "function"
    },
    {
      "constant": true,
      "inputs": [],
      "name": "DECIMALSFACTOR",
      "outputs": [
        {
          "name": "",
          "type": "uint256"
        }
      ],
      "payable": false,
      "stateMutability": "view",
      "type": "function"
    },
    {
      "constant": true,
      "inputs": [],
      "name": "owner",
      "outputs": [
        {
          "name": "",
          "type": "address"
        }
      ],
      "payable": false,
      "stateMutability": "view",
      "type": "function"
    },
    {
      "constant": true,
      "inputs": [
        {
          "name": "",
          "type": "address"
        }
      ],
      "name": "whitelist",
      "outputs": [
        {
          "name": "",
          "type": "bool"
        }
      ],
      "payable": false,
      "stateMutability": "view",
      "type": "function"
    },
    {
      "constant": true,
      "inputs": [],
      "name": "totalPresaleBase",
      "outputs": [
        {
          "name": "",
          "type": "uint256"
        }
      ],
      "payable": false,
      "stateMutability": "view",
      "type": "function"
    },
    {
      "constant": true,
      "inputs": [],
      "name": "TOKENS_DISTRIBUTED",
      "outputs": [
        {
          "name": "",
          "type": "uint256"
        }
      ],
      "payable": false,
      "stateMutability": "view",
      "type": "function"
    },
    {
      "constant": true,
      "inputs": [],
      "name": "publicSaleStarted",
      "outputs": [
        {
          "name": "",
          "type": "bool"
        }
      ],
      "payable": false,
      "stateMutability": "view",
      "type": "function"
    },
    {
      "constant": true,
      "inputs": [],
      "name": "tokensPerKEther",
      "outputs": [
        {
          "name": "",
          "type": "uint256"
        }
      ],
      "payable": false,
      "stateMutability": "view",
      "type": "function"
    },
    {
      "constant": true,
      "inputs": [],
      "name": "TOKENS_MAX",
      "outputs": [
        {
          "name": "",
          "type": "uint256"
        }
      ],
      "payable": false,
      "stateMutability": "view",
      "type": "function"
    },
    {
      "constant": true,
      "inputs": [],
      "name": "bonusIncreasePercentage",
      "outputs": [
        {
          "name": "",
          "type": "uint256"
        }
      ],
      "payable": false,
      "stateMutability": "view",
      "type": "function"
    },
    {
      "constant": true,
      "inputs": [],
      "name": "finalized",
      "outputs": [
        {
          "name": "",
          "type": "bool"
        }
      ],
      "payable": false,
      "stateMutability": "view",
      "type": "function"
    },
    {
      "constant": true,
      "inputs": [],
      "name": "CONTRIBUTION_MIN",
      "outputs": [
        {
          "name": "",
          "type": "uint256"
        }
      ],
      "payable": false,
      "stateMutability": "view",
      "type": "function"
    },
    {
      "constant": false,
      "inputs": [
        {
          "name": "newOwner",
          "type": "address"
        }
      ],
      "name": "transferOwnership",
      "outputs": [],
      "payable": false,
      "stateMutability": "nonpayable",
      "type": "function"
    },
    {
      "constant": true,
      "inputs": [],
      "name": "TOKENS_PER_KETHER",
      "outputs": [
        {
          "name": "",
          "type": "uint256"
        }
      ],
      "payable": false,
      "stateMutability": "view",
      "type": "function"
    },
    {
      "constant": true,
      "inputs": [],
      "name": "adminAddress",
      "outputs": [
        {
          "name": "",
          "type": "address"
        }
      ],
      "payable": false,
      "stateMutability": "view",
      "type": "function"
    },
    {
      "inputs": [
        {
          "name": "_tokenContract",
          "type": "address"
        },
        {
          "name": "_wallet",
          "type": "address"
        }
      ],
      "payable": false,
      "stateMutability": "nonpayable",
      "type": "constructor"
    },
    {
      "payable": true,
      "stateMutability": "payable",
      "type": "fallback"
    },
    {
      "anonymous": false,
      "inputs": [],
      "name": "Initialized",
      "type": "event"
    },
    {
      "anonymous": false,
      "inputs": [
        {
          "indexed": true,
          "name": "_account",
          "type": "address"
        },
        {
          "indexed": false,
          "name": "_baseTokens",
          "type": "uint256"
        },
        {
          "indexed": false,
          "name": "_bonusTokens",
          "type": "uint256"
        }
      ],
      "name": "PresaleAdded",
      "type": "event"
    },
    {
      "anonymous": false,
      "inputs": [
        {
          "indexed": true,
          "name": "_account",
          "type": "address"
        }
      ],
      "name": "WhitelistUpdated",
      "type": "event"
    },
    {
      "anonymous": false,
      "inputs": [
        {
          "indexed": true,
          "name": "_beneficiary",
          "type": "address"
        },
        {
          "indexed": false,
          "name": "_cost",
          "type": "uint256"
        },
        {
          "indexed": false,
          "name": "_tokens",
          "type": "uint256"
        },
        {
          "indexed": false,
          "name": "_totalSold",
          "type": "uint256"
        }
      ],
      "name": "TokensPurchased",
      "type": "event"
    },
    {
      "anonymous": false,
      "inputs": [
        {
          "indexed": false,
          "name": "_amount",
          "type": "uint256"
        }
      ],
      "name": "TokensPerKEtherUpdated",
      "type": "event"
    },
    {
      "anonymous": false,
      "inputs": [
        {
          "indexed": false,
          "name": "_newWallet",
          "type": "address"
        }
      ],
      "name": "WalletChanged",
      "type": "event"
    },
    {
      "anonymous": false,
      "inputs": [
        {
          "indexed": false,
          "name": "_amount",
          "type": "uint256"
        }
      ],
      "name": "TokensReclaimed",
      "type": "event"
    },
    {
      "anonymous": false,
      "inputs": [
        {
          "indexed": false,
          "name": "_amount",
          "type": "uint256"
        }
      ],
      "name": "UnsoldTokensBurnt",
      "type": "event"
    },
    {
      "anonymous": false,
      "inputs": [
        {
          "indexed": false,
          "name": "_oldPercentage",
          "type": "uint256"
        },
        {
          "indexed": false,
          "name": "_newPercentage",
          "type": "uint256"
        }
      ],
      "name": "BonusIncreasePercentageChanged",
      "type": "event"
    },
    {
      "anonymous": false,
      "inputs": [],
      "name": "Finalized",
      "type": "event"
    },
    {
      "anonymous": false,
      "inputs": [],
      "name": "Pause",
      "type": "event"
    },
    {
      "anonymous": false,
      "inputs": [],
      "name": "Unpause",
      "type": "event"
    },
    {
      "anonymous": false,
      "inputs": [
        {
          "indexed": true,
          "name": "_newAddress",
          "type": "address"
        }
      ],
      "name": "AdminAddressChanged",
      "type": "event"
    },
    {
      "anonymous": false,
      "inputs": [
        {
          "indexed": true,
          "name": "_newAddress",
          "type": "address"
        }
      ],
      "name": "OperatorAddressChanged",
      "type": "event"
    },
    {
      "anonymous": false,
      "inputs": [
        {
          "indexed": true,
          "name": "previousOwner",
          "type": "address"
        },
        {
          "indexed": true,
          "name": "newOwner",
          "type": "address"
        }
      ],
      "name": "OwnershipTransferred",
      "type": "event"
    },
    {
      "constant": false,
      "inputs": [],
      "name": "initialize",
      "outputs": [
        {
          "name": "",
          "type": "bool"
        }
      ],
      "payable": false,
      "stateMutability": "nonpayable",
      "type": "function"
    },
    {
      "constant": false,
      "inputs": [
        {
          "name": "_wallet",
          "type": "address"
        }
      ],
      "name": "changeWallet",
      "outputs": [
        {
          "name": "",
          "type": "bool"
        }
      ],
      "payable": false,
      "stateMutability": "nonpayable",
      "type": "function"
    },
    {
      "constant": true,
      "inputs": [],
      "name": "currentTime",
      "outputs": [
        {
          "name": "_currentTime",
          "type": "uint256"
        }
      ],
      "payable": false,
      "stateMutability": "view",
      "type": "function"
    },
    {
      "constant": false,
      "inputs": [
        {
          "name": "_account",
          "type": "address"
        }
      ],
      "name": "updateWhitelist",
      "outputs": [
        {
          "name": "",
          "type": "bool"
        }
      ],
      "payable": false,
      "stateMutability": "nonpayable",
      "type": "function"
    },
    {
      "constant": false,
      "inputs": [
        {
          "name": "_tokensPerKEther",
          "type": "uint256"
        }
      ],
      "name": "setTokensPerKEther",
      "outputs": [
        {
          "name": "",
          "type": "bool"
        }
      ],
      "payable": false,
      "stateMutability": "nonpayable",
      "type": "function"
    },
    {
      "constant": false,
      "inputs": [],
      "name": "buyTokens",
      "outputs": [
        {
          "name": "",
          "type": "bool"
        }
      ],
      "payable": true,
      "stateMutability": "payable",
      "type": "function"
    },
    {
      "constant": false,
      "inputs": [
        {
          "name": "_amount",
          "type": "uint256"
        }
      ],
      "name": "reclaimTokens",
      "outputs": [
        {
          "name": "",
          "type": "bool"
        }
      ],
      "payable": false,
      "stateMutability": "nonpayable",
      "type": "function"
    },
    {
      "constant": false,
      "inputs": [
        {
          "name": "_newPercentage",
          "type": "uint256"
        }
      ],
      "name": "changeBonusIncreasePercentage",
      "outputs": [
        {
          "name": "",
          "type": "bool"
        }
      ],
      "payable": false,
      "stateMutability": "nonpayable",
      "type": "function"
    },
    {
      "constant": false,
      "inputs": [],
      "name": "finalize",
      "outputs": [
        {
          "name": "",
          "type": "bool"
        }
      ],
      "payable": false,
      "stateMutability": "nonpayable",
      "type": "function"
    },
    {
      "constant": false,
      "inputs": [],
      "name": "startPublicSale",
      "outputs": [
        {
          "name": "",
          "type": "bool"
        }
      ],
      "payable": false,
      "stateMutability": "nonpayable",
      "type": "function"
    }
  ],
  "bytecode": "0x60806040526000600260146101000a81548160ff021916908315150217905550600a60045534801561003057600080fd5b5060405160408061268e8339810180604052810190808051906020019092919080519060200190929190505050336000806101000a81548173ffffffffffffffffffffffffffffffffffffffff021916908373ffffffffffffffffffffffffffffffffffffffff160217905550600073ffffffffffffffffffffffffffffffffffffffff168273ffffffffffffffffffffffffffffffffffffffff16141515156100d957600080fd5b600073ffffffffffffffffffffffffffffffffffffffff168173ffffffffffffffffffffffffffffffffffffffff161415151561011557600080fd5b60006306422c4011151561012857600080fd5b80600560006101000a81548173ffffffffffffffffffffffffffffffffffffffff021916908373ffffffffffffffffffffffffffffffffffffffff1602179055506000600260156101000a81548160ff0219169083151502179055506000600260166101000a81548160ff0219169083151502179055506306422c4060038190555081600660006101000a81548173ffffffffffffffffffffffffffffffffffffffff021916908373ffffffffffffffffffffffffffffffffffffffff1602179055505050612492806101fc6000396000f3006080604052600436106101ee576000357c0100000000000000000000000000000000000000000000000000000000900463ffffffff1680630c1c972a1461024e5780630e9d02cc1461027d578063127effb2146102c257806317393f04146103195780631a2309f0146103445780631be052891461036f5780632820d6a51461039a5780632c1e816d146103c55780632d897146146104205780632f1d5a60146104655780633280922b146104c05780633d0f963e146104eb5780633f4ba83a146105465780634bb278f31461055d578063521eb2731461058c57806355a373d6146105e35780635655e37b1461063a5780635b7f415c146106655780635c975abb1461069657806363b20117146106c55780637760da7f146106f05780638129fc1c146107355780638456cb59146107645780638bc04eb71461077b5780638da5cb5b146107a657806398b9a2dc146107fd5780639b19251a14610858578063a09b7e2b146108b3578063a1013abb146108de578063a2e9147714610909578063a5bc770c14610938578063a67e91a814610963578063af77040e1461098e578063b3f05b97146109b9578063ba9bb827146109e8578063d0febe4c14610a13578063d18e81b314610a35578063f2fde38b14610a60578063f527c85614610aa3578063fc6f946814610ace575b600260149054906101000a900460ff1615151561020a57600080fd5b60001515610216610b25565b1515148015610238575060011515600260169054906101000a900460ff161515145b151561024357600080fd5b61024b610b4d565b50005b34801561025a57600080fd5b50610263610fe4565b604051808215151515815260200191505060405180910390f35b34801561028957600080fd5b506102a860048036038101908080359060200190929190505050611055565b604051808215151515815260200191505060405180910390f35b3480156102ce57600080fd5b506102d76110fa565b604051808273ffffffffffffffffffffffffffffffffffffffff1673ffffffffffffffffffffffffffffffffffffffff16815260200191505060405180910390f35b34801561032557600080fd5b5061032e611120565b6040518082815260200191505060405180910390f35b34801561035057600080fd5b50610359611131565b6040518082815260200191505060405180910390f35b34801561037b57600080fd5b5061038461113f565b6040518082815260200191505060405180910390f35b3480156103a657600080fd5b506103af611146565b6040518082815260200191505060405180910390f35b3480156103d157600080fd5b50610406600480360381019080803573ffffffffffffffffffffffffffffffffffffffff16906020019092919050505061114c565b604051808215151515815260200191505060405180910390f35b34801561042c57600080fd5b5061044b600480360381019080803590602001909291905050506112ab565b604051808215151515815260200191505060405180910390f35b34801561047157600080fd5b506104a6600480360381019080803573ffffffffffffffffffffffffffffffffffffffff169060200190929190505050611350565b604051808215151515815260200191505060405180910390f35b3480156104cc57600080fd5b506104d56114af565b6040518082815260200191505060405180910390f35b3480156104f757600080fd5b5061052c600480360381019080803573ffffffffffffffffffffffffffffffffffffffff1690602001909291905050506114c1565b604051808215151515815260200191505060405180910390f35b34801561055257600080fd5b5061055b6115db565b005b34801561056957600080fd5b5061057261169a565b604051808215151515815260200191505060405180910390f35b34801561059857600080fd5b506105a16116bd565b604051808273ffffffffffffffffffffffffffffffffffffffff1673ffffffffffffffffffffffffffffffffffffffff16815260200191505060405180910390f35b3480156105ef57600080fd5b506105f86116e3565b604051808273ffffffffffffffffffffffffffffffffffffffff1673ffffffffffffffffffffffffffffffffffffffff16815260200191505060405180910390f35b34801561064657600080fd5b5061064f611709565b6040518082815260200191505060405180910390f35b34801561067157600080fd5b5061067a611715565b604051808260ff1660ff16815260200191505060405180910390f35b3480156106a257600080fd5b506106ab61171a565b604051808215151515815260200191505060405180910390f35b3480156106d157600080fd5b506106da61172d565b6040518082815260200191505060405180910390f35b3480156106fc57600080fd5b5061071b60048036038101908080359060200190929190505050611733565b604051808215151515815260200191505060405180910390f35b34801561074157600080fd5b5061074a611abc565b604051808215151515815260200191505060405180910390f35b34801561077057600080fd5b50610779611c97565b005b34801561078757600080fd5b50610790611d57565b6040518082815260200191505060405180910390f35b3480156107b257600080fd5b506107bb611d62565b604051808273ffffffffffffffffffffffffffffffffffffffff1673ffffffffffffffffffffffffffffffffffffffff16815260200191505060405180910390f35b34801561080957600080fd5b5061083e600480360381019080803573ffffffffffffffffffffffffffffffffffffffff169060200190929190505050611d87565b604051808215151515815260200191505060405180910390f35b34801561086457600080fd5b50610899600480360381019080803573ffffffffffffffffffffffffffffffffffffffff169060200190929190505050611f40565b604051808215151515815260200191505060405180910390f35b3480156108bf57600080fd5b506108c8611f60565b6040518082815260200191505060405180910390f35b3480156108ea57600080fd5b506108f3611f66565b6040518082815260200191505060405180910390f35b34801561091557600080fd5b5061091e611f78565b604051808215151515815260200191505060405180910390f35b34801561094457600080fd5b5061094d611f8b565b6040518082815260200191505060405180910390f35b34801561096f57600080fd5b50610978611f91565b6040518082815260200191505060405180910390f35b34801561099a57600080fd5b506109a3611fa3565b6040518082815260200191505060405180910390f35b3480156109c557600080fd5b506109ce611fa9565b604051808215151515815260200191505060405180910390f35b3480156109f457600080fd5b506109fd611fbc565b6040518082815260200191505060405180910390f35b610a1b610b4d565b604051808215151515815260200191505060405180910390f35b348015610a4157600080fd5b50610a4a611fc8565b6040518082815260200191505060405180910390f35b348015610a6c57600080fd5b50610aa1600480360381019080803573ffffffffffffffffffffffffffffffffffffffff169060200190929190505050611fd0565b005b348015610aaf57600080fd5b50610ab8612125565b6040518082815260200191505060405180910390f35b348015610ada57600080fd5b50610ae361212d565b604051808273ffffffffffffffffffffffffffffffffffffffff1673ffffffffffffffffffffffffffffffffffffffff16815260200191505060405180910390f35b6000600260159054906101000a900460ff1615610b455760019050610b4a565b600090505b90565b600080600080600080600260149054906101000a900460ff16151515610b7257600080fd5b60001515610b7e610b25565b1515148015610ba0575060011515600260169054906101000a900460ff161515145b1515610bab57600080fd5b67016345785d8a00003410151515610bc257600080fd5b69021e19e0c9bab24000003411151515610bdb57600080fd5b601260ff16600a0a64012a05f20002600754101515610bf957600080fd5b600a60003373ffffffffffffffffffffffffffffffffffffffff1673ffffffffffffffffffffffffffffffffffffffff16815260200190815260200160002060009054906101000a900460ff16945067db44e049bb2c000034101515610c6657841515610c6557600080fd5b5b610c89600754601260ff16600a0a64012a05f2000261215390919063ffffffff16565b9350600084111515610c9a57600080fd5b610cf56064610ce76003601260ff1660120301600a0a610cd9600454610ccb6003543461216c90919063ffffffff16565b61216c90919063ffffffff16565b6121a790919063ffffffff16565b6121a790919063ffffffff16565b9250600083111515610d0657600080fd5b3491506000905083831115610d6457839250610d4c600354610d3e6003601260ff1660120301600a0a8661216c90919063ffffffff16565b6121a790919063ffffffff16565b9150610d61823461215390919063ffffffff16565b90505b610d79836007546121c290919063ffffffff16565b600781905550600660009054906101000a900473ffffffffffffffffffffffffffffffffffffffff1673ffffffffffffffffffffffffffffffffffffffff1663a9059cbb33856040518363ffffffff167c0100000000000000000000000000000000000000000000000000000000028152600401808373ffffffffffffffffffffffffffffffffffffffff1673ffffffffffffffffffffffffffffffffffffffff16815260200182815260200192505050602060405180830381600087803b158015610e4457600080fd5b505af1158015610e58573d6000803e3d6000fd5b505050506040513d6020811015610e6e57600080fd5b81019080805190602001909291905050501515610e8a57600080fd5b6000811115610edb573373ffffffffffffffffffffffffffffffffffffffff166108fc829081150290604051600060405180830381858888f19350505050158015610ed9573d6000803e3d6000fd5b505b600560009054906101000a900473ffffffffffffffffffffffffffffffffffffffff1673ffffffffffffffffffffffffffffffffffffffff166108fc610f2a833461215390919063ffffffff16565b9081150290604051600060405180830381858888f19350505050158015610f55573d6000803e3d6000fd5b503373ffffffffffffffffffffffffffffffffffffffff167f0d1a0d5e3d583a0e92588799dd06e50fd78c07daf05f0cc06d7b848b1ca445f1838560075460405180848152602001838152602001828152602001935050505060405180910390a2601260ff16600a0a64012a05f200026007541415610fd857610fd66121e0565b505b60019550505050505090565b6000610fef3361224c565b1515610ffa57600080fd5b60001515611006610b25565b1515148015611028575060001515600260169054906101000a900460ff161515145b151561103357600080fd5b6001600260166101000a81548160ff0219169083151502179055506001905090565b60006110603361224c565b151561106b57600080fd5b60001515611077610b25565b1515148015611099575060001515600260169054906101000a900460ff161515145b15156110a457600080fd5b6000821115156110b357600080fd5b816003819055507fee386bebbe46d39825c2b93313aa1ab1dc57d4774cac81c6debb8c611c9227ab826040518082815260200191505060405180910390a160019050919050565b600160009054906101000a900473ffffffffffffffffffffffffffffffffffffffff1681565b6003601260ff1660120301600a0a81565b69021e19e0c9bab240000081565b626ebe0081565b60095481565b600061115733612300565b8061116757506111663361224c565b5b151561117257600080fd5b6000809054906101000a900473ffffffffffffffffffffffffffffffffffffffff1673ffffffffffffffffffffffffffffffffffffffff168273ffffffffffffffffffffffffffffffffffffffff16141515156111ce57600080fd5b3073ffffffffffffffffffffffffffffffffffffffff168273ffffffffffffffffffffffffffffffffffffffff161415151561120957600080fd5b611212826123b2565b15151561121e57600080fd5b81600260006101000a81548173ffffffffffffffffffffffffffffffffffffffff021916908373ffffffffffffffffffffffffffffffffffffffff1602179055508173ffffffffffffffffffffffffffffffffffffffff167f17bb0532ac84902a52bb6799529153f5ea501fc54fbcf3ea00dbd42bceb6b0f460405160405180910390a260019050919050565b600080600015156112ba610b25565b15151480156112dc575060011515600260169054906101000a900460ff161515145b15156112e757600080fd5b6112f03361224c565b15156112fb57600080fd5b6004549050826004819055507f29131d02985699a9590e325c18ac3ed2e294f7433d3df9c2b67c15e258d9f5c68184604051808381526020018281526020019250505060405180910390a16001915050919050565b600061135b33612300565b8061136b575061136a3361224c565b5b151561137657600080fd5b6000809054906101000a900473ffffffffffffffffffffffffffffffffffffffff1673ffffffffffffffffffffffffffffffffffffffff168273ffffffffffffffffffffffffffffffffffffffff16141515156113d257600080fd5b3073ffffffffffffffffffffffffffffffffffffffff168273ffffffffffffffffffffffffffffffffffffffff161415151561140d57600080fd5b6114168261224c565b15151561142257600080fd5b81600160006101000a81548173ffffffffffffffffffffffffffffffffffffffff021916908373ffffffffffffffffffffffffffffffffffffffff1602179055508173ffffffffffffffffffffffffffffffffffffffff167f2cbac2b64384bea29a06e4e8a692a6e5320bfa529be0407a03d41605cb69817360405160405180910390a260019050919050565b601260ff16600a0a64012a05f2000281565b60006114cc3361224c565b806114dc57506114db336123b2565b5b15156114e757600080fd5b600073ffffffffffffffffffffffffffffffffffffffff168273ffffffffffffffffffffffffffffffffffffffff161415151561152357600080fd5b61152b610b25565b15151561153757600080fd5b6001600a60008473ffffffffffffffffffffffffffffffffffffffff1673ffffffffffffffffffffffffffffffffffffffff16815260200190815260200160002060006101000a81548160ff0219169083151502179055508173ffffffffffffffffffffffffffffffffffffffff167f86eba8651458cc924e4911e8a0a31258558de0474fdc43da05cea932cf130aad60405160405180910390a260019050919050565b6000809054906101000a900473ffffffffffffffffffffffffffffffffffffffff1673ffffffffffffffffffffffffffffffffffffffff163373ffffffffffffffffffffffffffffffffffffffff1614151561163657600080fd5b600260149054906101000a900460ff16151561165157600080fd5b6000600260146101000a81548160ff0219169083151502179055507f7805862f689e2f13df9f062ff482ad3ad112aca9e0847911ed832e158c525b3360405160405180910390a1565b60006116a53361224c565b15156116b057600080fd5b6116b86121e0565b905090565b600560009054906101000a900473ffffffffffffffffffffffffffffffffffffffff1681565b600660009054906101000a900473ffffffffffffffffffffffffffffffffffffffff1681565b67db44e049bb2c000081565b601281565b600260149054906101000a900460ff1681565b60075481565b6000806000600260159054906101000a900460ff16151561175357600080fd5b61175c3361224c565b151561176757600080fd5b600660009054906101000a900473ffffffffffffffffffffffffffffffffffffffff1673ffffffffffffffffffffffffffffffffffffffff166370a08231306040518263ffffffff167c0100000000000000000000000000000000000000000000000000000000028152600401808273ffffffffffffffffffffffffffffffffffffffff1673ffffffffffffffffffffffffffffffffffffffff168152602001915050602060405180830381600087803b15801561182457600080fd5b505af1158015611838573d6000803e3d6000fd5b505050506040513d602081101561184e57600080fd5b8101908080519060200190929190505050915081841115151561187057600080fd5b600660009054906101000a900473ffffffffffffffffffffffffffffffffffffffff1673ffffffffffffffffffffffffffffffffffffffff16638da5cb5b6040518163ffffffff167c0100000000000000000000000000000000000000000000000000000000028152600401602060405180830381600087803b1580156118f657600080fd5b505af115801561190a573d6000803e3d6000fd5b505050506040513d602081101561192057600080fd5b81019080805190602001909291905050509050600073ffffffffffffffffffffffffffffffffffffffff168173ffffffffffffffffffffffffffffffffffffffff161415151561196f57600080fd5b600660009054906101000a900473ffffffffffffffffffffffffffffffffffffffff1673ffffffffffffffffffffffffffffffffffffffff1663a9059cbb82866040518363ffffffff167c0100000000000000000000000000000000000000000000000000000000028152600401808373ffffffffffffffffffffffffffffffffffffffff1673ffffffffffffffffffffffffffffffffffffffff16815260200182815260200192505050602060405180830381600087803b158015611a3457600080fd5b505af1158015611a48573d6000803e3d6000fd5b505050506040513d6020811015611a5e57600080fd5b81019080805190602001909291905050501515611a7a57600080fd5b7fbce3cc672456937708767d1642a17cacb1962753bd5cff46c8dbd377906a6b4b846040518082815260200191505060405180910390a1600192505050919050565b6000806000809054906101000a900473ffffffffffffffffffffffffffffffffffffffff1673ffffffffffffffffffffffffffffffffffffffff163373ffffffffffffffffffffffffffffffffffffffff16141515611b1a57600080fd5b6000600754141515611b2b57600080fd5b6000600854141515611b3c57600080fd5b6000600954141515611b4d57600080fd5b600660009054906101000a900473ffffffffffffffffffffffffffffffffffffffff1673ffffffffffffffffffffffffffffffffffffffff166370a08231306040518263ffffffff167c0100000000000000000000000000000000000000000000000000000000028152600401808273ffffffffffffffffffffffffffffffffffffffff1673ffffffffffffffffffffffffffffffffffffffff168152602001915050602060405180830381600087803b158015611c0a57600080fd5b505af1158015611c1e573d6000803e3d6000fd5b505050506040513d6020811015611c3457600080fd5b81019080805190602001909291905050509050601260ff16600a0a64012a05f2000281141515611c6357600080fd5b7f5daa87a0e9463431830481fd4b6e3403442dfb9a12b9c07597e9f61d50b633c860405160405180910390a1600191505090565b6000809054906101000a900473ffffffffffffffffffffffffffffffffffffffff1673ffffffffffffffffffffffffffffffffffffffff163373ffffffffffffffffffffffffffffffffffffffff16141515611cf257600080fd5b600260149054906101000a900460ff16151515611d0e57600080fd5b6001600260146101000a81548160ff0219169083151502179055507f6985a02210a168e66602d3235cb6db0e70f92b3ba4d376a33c0f3d9434bff62560405160405180910390a1565b601260ff16600a0a81565b6000809054906101000a900473ffffffffffffffffffffffffffffffffffffffff1681565b6000611d923361224c565b1515611d9d57600080fd5b600073ffffffffffffffffffffffffffffffffffffffff168273ffffffffffffffffffffffffffffffffffffffff1614151515611dd957600080fd5b3073ffffffffffffffffffffffffffffffffffffffff168273ffffffffffffffffffffffffffffffffffffffff1614151515611e1457600080fd5b600660009054906101000a900473ffffffffffffffffffffffffffffffffffffffff1673ffffffffffffffffffffffffffffffffffffffff168273ffffffffffffffffffffffffffffffffffffffff1614151515611e7157600080fd5b81600560006101000a81548173ffffffffffffffffffffffffffffffffffffffff021916908373ffffffffffffffffffffffffffffffffffffffff1602179055507f3ce716f94fe275e52428cbf6b7f388e5a65976d4edabc34355a77f5e89655bdc600560009054906101000a900473ffffffffffffffffffffffffffffffffffffffff16604051808273ffffffffffffffffffffffffffffffffffffffff1673ffffffffffffffffffffffffffffffffffffffff16815260200191505060405180910390a160019050919050565b600a6020528060005260406000206000915054906101000a900460ff1681565b60085481565b601260ff16600a0a64012a05f2000281565b600260169054906101000a900460ff1681565b60035481565b601260ff16600a0a6402540be4000281565b60045481565b600260159054906101000a900460ff1681565b67016345785d8a000081565b600042905090565b6000809054906101000a900473ffffffffffffffffffffffffffffffffffffffff1673ffffffffffffffffffffffffffffffffffffffff163373ffffffffffffffffffffffffffffffffffffffff1614151561202b57600080fd5b600073ffffffffffffffffffffffffffffffffffffffff168173ffffffffffffffffffffffffffffffffffffffff161415151561206757600080fd5b8073ffffffffffffffffffffffffffffffffffffffff166000809054906101000a900473ffffffffffffffffffffffffffffffffffffffff1673ffffffffffffffffffffffffffffffffffffffff167f8be0079c531659141344cd1fd0a4f28419497f9722a3daafe3b4186f6b6457e060405160405180910390a3806000806101000a81548173ffffffffffffffffffffffffffffffffffffffff021916908373ffffffffffffffffffffffffffffffffffffffff16021790555050565b6306422c4081565b600260009054906101000a900473ffffffffffffffffffffffffffffffffffffffff1681565b600082821115151561216157fe5b818303905092915050565b600080600084141561218157600091506121a0565b828402905082848281151561219257fe5b0414151561219c57fe5b8091505b5092915050565b60008082848115156121b557fe5b0490508091505092915050565b60008082840190508381101515156121d657fe5b8091505092915050565b6000600260159054906101000a900460ff161515156121fe57600080fd5b6001600260156101000a81548160ff0219169083151502179055507f6823b073d48d6e3a7d385eeb601452d680e74bb46afe3255a7d778f3a9b1768160405160405180910390a16001905090565b60008073ffffffffffffffffffffffffffffffffffffffff16600260009054906101000a900473ffffffffffffffffffffffffffffffffffffffff1673ffffffffffffffffffffffffffffffffffffffff16141580156122f95750600260009054906101000a900473ffffffffffffffffffffffffffffffffffffffff1673ffffffffffffffffffffffffffffffffffffffff168273ffffffffffffffffffffffffffffffffffffffff16145b9050919050565b60008073ffffffffffffffffffffffffffffffffffffffff166000809054906101000a900473ffffffffffffffffffffffffffffffffffffffff1673ffffffffffffffffffffffffffffffffffffffff16141580156123ab57506000809054906101000a900473ffffffffffffffffffffffffffffffffffffffff1673ffffffffffffffffffffffffffffffffffffffff168273ffffffffffffffffffffffffffffffffffffffff16145b9050919050565b60008073ffffffffffffffffffffffffffffffffffffffff16600160009054906101000a900473ffffffffffffffffffffffffffffffffffffffff1673ffffffffffffffffffffffffffffffffffffffff161415801561245f5750600160009054906101000a900473ffffffffffffffffffffffffffffffffffffffff1673ffffffffffffffffffffffffffffffffffffffff168273ffffffffffffffffffffffffffffffffffffffff16145b90509190505600a165627a7a72305820650bb6ba6bc3858f91bb860bb7b28ea26528fc21c500a71182e3f8bbef68e7130029",
  "source": "pragma solidity ^0.4.18;\r\n\r\nimport \"./JSEToken.sol\";\r\nimport \"./JSECoinCrowdsaleConfig.sol\";\r\nimport \"./OperatorManaged.sol\";\r\nimport \"zeppelin-solidity/contracts/lifecycle/Pausable.sol\";\r\nimport \"zeppelin-solidity/contracts/math/SafeMath.sol\";\r\n\r\n\r\n//\r\n// Implementation of the 1st token sale for Simple Token\r\n//\r\n// * Lifecycle *\r\n// Initialization sequence should be as follow:\r\n//    1. Deploy JSEToken contract\r\n//    2. Deploy JSETokenSale contract\r\n//    3. Set operationsAddress of JSEToken contract to JSETokenSale contract\r\n//    4. Transfer tokens from owner to JSETokenSale contract\r\n//    5. Transfer tokens from owner to Distributer Account\r\n//    6. Initialize JSETokenSale contract\r\n//\r\n// Pre-sale sequence:\r\n//    - Set tokensPerKEther\r\n//    - Update whitelist\r\n//    - Start public sale\r\n//\r\n// After-sale sequence:\r\n//    1. Finalize the JSETokenSale contract\r\n//    2. Finalize the JSEToken contract\r\n//    3. Set operationsAddress of JSETokenSale contract to 0\r\n//    4. Set operationsAddress of JSEToken contract to 0\r\n//    5. Set operationsAddress of JSETrustee contract to some address\r\n//\r\n// Anytime\r\n//    - Update whitelist\r\n//\r\n\r\ncontract JSETokenSale is OperatorManaged, Pausable, JSECoinCrowdsaleConfig { // Pausable is also Owned\r\n\r\n    using SafeMath for uint256;\r\n\r\n\r\n    // We keep track of whether the sale has been finalized, at which point\r\n    // no additional contributions will be permitted.\r\n    bool public finalized;\r\n\r\n    // Public Sales start trigger\r\n    bool public publicSaleStarted;\r\n\r\n    // Number of tokens per 1000 ETH. See JSETokenSaleConfig for details.\r\n    uint256 public tokensPerKEther;\r\n\r\n    // Increase Percentage Bonus of buying tokens\r\n    uint256 public bonusIncreasePercentage = 10; //percentage\r\n\r\n    // Address where the funds collected during the sale will be forwarded.\r\n    address public wallet;\r\n\r\n    // Token contract that the sale contract will interact with.\r\n    JSEToken public tokenContract;\r\n\r\n    // // JSETrustee contract to hold on token balances. The following token pools will be held by trustee:\r\n    // //    - Founders\r\n    // //    - Advisors\r\n    // //    - Early investors\r\n    // //    - Presales\r\n    // address private distributerAccount;\r\n\r\n    // Total amount of tokens sold during presale + public sale. Excludes pre-sale bonuses.\r\n    uint256 public totalTokensSold;\r\n\r\n    // Total amount of tokens given as bonus during presale. Will influence accelerator token balance.\r\n    uint256 public totalPresaleBase;\r\n    uint256 public totalPresaleBonus;\r\n\r\n    // Map of addresses that have been whitelisted in advance (and passed KYC).\r\n    mapping(address => bool) public whitelist;\r\n\r\n\r\n    //\r\n    // EVENTS\r\n    //\r\n    event Initialized();\r\n    event PresaleAdded(address indexed _account, uint256 _baseTokens, uint256 _bonusTokens);\r\n    event WhitelistUpdated(address indexed _account);\r\n    event TokensPurchased(address indexed _beneficiary, uint256 _cost, uint256 _tokens, uint256 _totalSold);\r\n    event TokensPerKEtherUpdated(uint256 _amount);\r\n    event WalletChanged(address _newWallet);\r\n    event TokensReclaimed(uint256 _amount);\r\n    event UnsoldTokensBurnt(uint256 _amount);\r\n    event BonusIncreasePercentageChanged(uint256 _oldPercentage, uint256 _newPercentage);\r\n    event Finalized();\r\n\r\n\r\n    function JSETokenSale(JSEToken _tokenContract, address _wallet) public\r\n        OperatorManaged()\r\n    {\r\n        require(address(_tokenContract) != address(0));\r\n        //  require(address(_distributerAccount) != address(0));\r\n        require(_wallet != address(0));\r\n\r\n        require(TOKENS_PER_KETHER > 0);\r\n\r\n\r\n        wallet                  = _wallet;\r\n        finalized               = false;\r\n        publicSaleStarted       = false;\r\n        tokensPerKEther         = TOKENS_PER_KETHER;\r\n        tokenContract           = _tokenContract;\r\n        //distributerAccount      = _distributerAccount;\r\n    }\r\n\r\n\r\n    // Initialize is called to check some configuration parameters.\r\n    // It expects that a certain amount of tokens have already been assigned to the sale contract address.\r\n    function initialize() external onlyOwner returns (bool) {\r\n        require(totalTokensSold == 0);\r\n        require(totalPresaleBase == 0);\r\n        require(totalPresaleBonus == 0);\r\n\r\n        uint256 ownBalance = tokenContract.balanceOf(address(this));\r\n        require(ownBalance == TOKENS_SALE);\r\n\r\n        Initialized();\r\n\r\n        return true;\r\n    }\r\n\r\n\r\n    // Allows the admin to change the wallet where ETH contributions are sent.\r\n    function changeWallet(address _wallet) external onlyAdmin returns (bool) {\r\n        require(_wallet != address(0));\r\n        require(_wallet != address(this));\r\n        // require(_wallet != address(distributerAccount));\r\n        require(_wallet != address(tokenContract));\r\n\r\n        wallet = _wallet;\r\n\r\n        WalletChanged(wallet);\r\n\r\n        return true;\r\n    }\r\n\r\n\r\n\r\n    //\r\n    // TIME\r\n    //\r\n\r\n    function currentTime() public view returns (uint256 _currentTime) {\r\n        return now;\r\n    }\r\n\r\n\r\n    modifier onlyBeforeSale() {\r\n        require(hasSaleEnded() == false && publicSaleStarted == false);\r\n        _;\r\n    }\r\n\r\n\r\n    modifier onlyDuringSale() {\r\n        require(hasSaleEnded() == false && publicSaleStarted == true);\r\n        _;\r\n    }\r\n\r\n    modifier onlyAfterSale() {\r\n        // require finalized is stronger than hasSaleEnded\r\n        require(finalized);\r\n        _;\r\n    }\r\n\r\n\r\n    function hasSaleEnded() private view returns (bool) {\r\n        // if sold out or finalized, sale has ended\r\n        if (finalized) {\r\n            return true;\r\n        } else {\r\n            return false;\r\n        }\r\n    }\r\n\r\n\r\n\r\n    //\r\n    // WHITELIST\r\n    //\r\n\r\n    // Allows operator to add accounts to the whitelist.\r\n    // Only those accounts will be allowed to contribute above the threshold\r\n    function updateWhitelist(address _account) external onlyAdminOrOperator returns (bool) {\r\n        require(_account != address(0));\r\n        require(!hasSaleEnded());\r\n\r\n        whitelist[_account] = true;\r\n\r\n        WhitelistUpdated(_account);\r\n\r\n        return true;\r\n    }\r\n\r\n    //\r\n    // PURCHASES / CONTRIBUTIONS\r\n    //\r\n\r\n    // Allows the admin to set the price for tokens sold during phases 1 and 2 of the sale.\r\n    function setTokensPerKEther(uint256 _tokensPerKEther) external onlyAdmin onlyBeforeSale returns (bool) {\r\n        require(_tokensPerKEther > 0);\r\n\r\n        tokensPerKEther = _tokensPerKEther;\r\n\r\n        TokensPerKEtherUpdated(_tokensPerKEther);\r\n\r\n        return true;\r\n    }\r\n\r\n\r\n    function () external payable whenNotPaused onlyDuringSale {\r\n        buyTokens();\r\n    }\r\n\r\n\r\n    // This is the main function to process incoming ETH contributions.\r\n    function buyTokens() public payable whenNotPaused onlyDuringSale returns (bool) {\r\n        require(msg.value >= CONTRIBUTION_MIN);\r\n        require(msg.value <= CONTRIBUTION_MAX);\r\n        require(totalTokensSold < TOKENS_SALE);\r\n\r\n        // All accounts need to be whitelisted to purchase.\r\n        bool whitelisted = whitelist[msg.sender];\r\n        if(msg.value >= CONTRIBUTION_MAX_NO_WHITELIST){\r\n            require(whitelisted);\r\n        }\r\n\r\n        uint256 tokensMax = TOKENS_SALE.sub(totalTokensSold);\r\n\r\n        require(tokensMax > 0);\r\n\r\n        uint256 tokensBought = msg.value.mul(tokensPerKEther).mul(bonusIncreasePercentage).div(PURCHASE_DIVIDER).div(100);\r\n        require(tokensBought > 0);\r\n\r\n        uint256 cost = msg.value;\r\n        uint256 refund = 0;\r\n\r\n        if (tokensBought > tokensMax) {\r\n            // Not enough tokens available for full contribution, we will do partial.\r\n            tokensBought = tokensMax;\r\n\r\n            // Calculate actual cost for partial amount of tokens.\r\n            cost = tokensBought.mul(PURCHASE_DIVIDER).div(tokensPerKEther);\r\n\r\n            // Calculate refund for contributor.\r\n            refund = msg.value.sub(cost);\r\n        }\r\n\r\n        totalTokensSold = totalTokensSold.add(tokensBought);\r\n\r\n        // Transfer tokens to the account\r\n        require(tokenContract.transfer(msg.sender, tokensBought));\r\n\r\n        // Issue a ETH refund for any unused portion of the funds.\r\n        if (refund > 0) {\r\n            msg.sender.transfer(refund);\r\n        }\r\n\r\n        // Transfer the contribution to the wallet\r\n        wallet.transfer(msg.value.sub(refund));\r\n\r\n        TokensPurchased(msg.sender, cost, tokensBought, totalTokensSold);\r\n\r\n        // If all tokens available for sale have been sold out, finalize the sale automatically.\r\n        if (totalTokensSold == TOKENS_SALE) {\r\n            finalizeInternal();\r\n        }\r\n\r\n        return true;\r\n    }\r\n\r\n\r\n\r\n    // Allows the admin to move bonus tokens still available in the sale contract\r\n    // out before burning all remaining unsold tokens in burnUnsoldTokens().\r\n    // Used to distribute bonuses to token sale participants when the sale has ended\r\n    // and all bonuses are known.\r\n    function reclaimTokens(uint256 _amount) external onlyAfterSale onlyAdmin returns (bool) {\r\n        uint256 ownBalance = tokenContract.balanceOf(address(this));\r\n        require(_amount <= ownBalance);\r\n        \r\n        address tokenOwner = tokenContract.owner();\r\n        require(tokenOwner != address(0));\r\n\r\n        require(tokenContract.transfer(tokenOwner, _amount));\r\n\r\n        TokensReclaimed(_amount);\r\n\r\n        return true;\r\n    }\r\n\r\n    function changeBonusIncreasePercentage(uint256 _newPercentage) external onlyDuringSale onlyAdmin returns (bool) {\r\n        uint oldPercentage = bonusIncreasePercentage;\r\n        bonusIncreasePercentage = _newPercentage;\r\n        BonusIncreasePercentageChanged(oldPercentage, _newPercentage);\r\n        return true;\r\n    }\r\n\r\n    // Allows the admin to finalize the sale and complete allocations.\r\n    // The JSEToken.admin also needs to finalize the token contract\r\n    // so that token transfers are enabled.\r\n    function finalize() external onlyAdmin returns (bool) {\r\n        return finalizeInternal();\r\n    }\r\n\r\n    function startPublicSale() external onlyAdmin onlyBeforeSale returns (bool) {\r\n        publicSaleStarted = true;\r\n        return true;\r\n    }\r\n\r\n\r\n    // The internal one will be called if tokens are sold out or\r\n    // the end time for the sale is reached, in addition to being called\r\n    // from the public version of finalize().\r\n    function finalizeInternal() private returns (bool) {\r\n        require(!finalized);\r\n\r\n        finalized = true;\r\n\r\n        Finalized();\r\n\r\n        return true;\r\n    }\r\n}\r\n",
  "sourcePath": "C:\\work\\jsecoin\\github\\contract\\contracts\\JSETokenSale.sol",
  "compiler": {
    "name": "solc",
    "version": "0.4.24+commit.e67f0147.Emscripten.clang"
  },
  "schemaVersion": "2.0.0",
  "updatedAt": "2018-06-08T15:56:20.460Z"
}